S01C000053544B333730305F6672656572746F735F64656D6F2E7333374F
S113000000000220716A00009D6A00009D6A0000E1
S11300109D6A00009D6A00009D6A00009D6A0000C0
S11300209D6A00009D6A00009D6A0000516E0000F8
S11300309D6A00009D6A0000C16F00000570000009
S1130040A94600009D6A00009D6A00009D6A0000A8
S11300509D6A00009D6A00009D6A00009D6A000080
S11300609D6A0000D9720000952700009D6A000077
S11300709D6A00009D6A00009D6A00009D6A000060
S11300809D6A00009D6A00009D6A00009D6A000050
S11300909D6A00009D6A00009D6A00009D6A000040
S11300A09D6A00009D6A00009D6A00009D6A000030
S11300B09D6A00009D6A0000A9720000F91B0000FF
S11300C09D6A00009D6A00009D6A00009D6A000010
S11300D09D6A00009D6A00009D6A000010B5054CF1
S11300E0237833B9044B13B10448AFF300800123E0
S11300F0237010BD0C010020000000006099000076
S1130100084B10B51BB108480849AFF300800848F4
S1130110036803B910BD074B002BFBD0BDE81040AA
S1130120184700BF00000000609900001001002083
S11301300801002000000000154B002B08BF134BE2
S11301409D46A3F5803A00218B460F461348144A76
S1130150121A07F018FA0F4B002B00D098470E4BD9
S1130160002B00D098470020002104000D000D480A
S1130170002802D00C48AFF3008007F0D3F9200028
S1130180290000F089F807F0B9F900BF0000080061
S11301900000022000000000000000000C0100200C
S11301A0C0DB0120000000000000000080B400AFAC
S11301B0044BDB6C1B0EDBB21846BD465DF8047BBA
S11301C0704700BFB081E00F80B582B000AFFFF789
S11301D0EDFF0346FB713B1D184601F0F3FBFB7971
S11301E00F2B0AD93B79022B07D9054A044B1B680C
S11301F023F0500343F0100313600837BD4680BD5D
S1130200C0800C4080B586B000AF7860002003F059
S113021055F978617869202103F04CFB78690A214B
S113022003F028FB194807F047FA786942F2107185
S113023003F0B2F938613B69002B00D124E018E0E7
S1130240386902F0CBFFB860BB680A2B09D1FB68A0
S11302500E330F48194607F09FF9F86802F058FD6D
S113026007E00C4807F028FA3869F96804F028F820
S113027000BF3869642103F0B3F9F860FB68002B10
S1130280DED1386902F06EFFCCE700BFAC89000014
S1130290C0890000E489000080B586B002AF7860B0
S11302A0396006F02DFFFFF78FFF012003F0CAF835
S11302B04FF496704FF4967102F02EFC002001F07A
S11302C05BFF012001214FF4C87201F0A9FE202038
S11302D005210D4AFF2301F091FD4FF4FA7001212D
S11302E003F0E2FD094807F0E7F90023009307F162
S11302F00C030193064807494FF47A72002302F075
S1130300EDFB05F0D3FCFEE704000020F4890000B7
S1130310050200000C8A000080B483B000AF78604E
S11303203960FEE780B487B000AFF860B9607A60E6
S1130330FB6803F10473DA00BB6813449B007B6120
S11303407B697A681A601C37BD465DF8047B704788
S113035080B483B000AF7860034A7B6813630C37C2
S1130360BD465DF8047B70470010084080B582B03C
S113037000AF0346FB71FB7983F00103DBB2002B72
S113038005D10F4B1B6803F00303002B07D1FB7946
S1130390002B04D00B484FF48B71FFF7BDFFFB79A2
S11303A0002B05D0064803210022FFF7BBFF04E021
S11303B0034803210122FFF7B5FF0837BD4680BD7E
S11303C000100840148A000080B582B000AF0346D4
S11303D0FB71FB79034800211A46FFF7A3FF083796
S11303E0BD4680BD3810084080B584B000AF786049
S11303F07B68002B03D07B68B3F5004F03D9074813
S11304004821FFF789FF7B68B3FA83F3C3F11F0325
S1130410FB60FB6818461037BD4680BD708A00003B
S113042080B483B000AF78600C4B9B6B03F0010386
S1130430002B05D1094B1B6803F44053002B00D15A
S113044006E000BF054BDA6B7B681340002BF9D143
S11304500C37BD465DF8047B704700BF00100840B0
S113046080B584B000AF78607B68002B03D141482D
S11304708421FFF751FF7B689B68002B03D07B68C6
S11304809B68802B03D93B488621FFF745FF7B6897
S1130490DB68062B03D937488921FFF73DFF7B68CA
S11304A01B78002B0ED07B681B7883F00103DBB232
S11304B0002B03D17B685B78002B03D12D488D2161
S11304C0FFF72AFF7B689B88B3F5405F0CD17B68FC
S11304D09B88B3F5405F03D17B689B7C002B03D0E2
S11304E024489121FFF718FF7B689B681846FFF7A3
S11304F07BFFF8607B681B78002B02D00120FFF79C
S113050063FF0120FFF78CFF1B4A7B689B7C5360D1
S11305107B685B7843F00803DBB21A467B689B7800
S11305209B0013437A68527C12011A437B68DB6890
S11305305B011A43FB681B0213437A6892881343D6
S11305407A68127C92031343BB604FF0FF30FFF7CD
S1130550FFFE094ABB6813607B681B78002B05D03B
S11305600120FFF703FF0020FFF72EFF1037BD46E1
S113057080BD00BF708A00000010084080B582B0C2
S113058000AF786039607B68002B03D00648CA212D
S1130590FFF7C2FE0220FFF743FF044A3B68D36023
S11305A00837BD4680BD00BF708A000000100840B7
S11305B080B582B000AF78607B68002B03D005481B
S11305C0DF21FFF7A9FE044BDB6818460837BD4658
S11305D080BD00BF708A00000010084080B500AFE5
S11305E0054803210122FFF79DFE03480321002251
S11305F0FFF798FE80BD00BF0010084080B487B0AC
S113060000AFF860B9607A60FB6803F10473DA0044
S1130610BB6813449B007B617B697A681A601C3752
S1130620BD465DF8047B704780B485B000AF786048
S113063039607B6803F10473DA003B6813449B0060
S1130640FB60FB681B6818461437BD465DF8047BE5
S1130650704700BF80B584B000AF78607B68002B22
S113066003D07B68B3F5004F04D9084840F2AB616E
S1130670FFF752FE7B68B3FA83F3C3F11F03FB60F9
S1130680FB6818461037BD4680BD00BF848A000051
S113069080B400AF044BDB6C1B0EDBB21846BD46C6
S11306A05DF8047B704700BFB081E00F80B400AFF9
S11306B0054BDB6C03F47F031B0CDBB21846BD4611
S11306C05DF8047B704700BFB081E00F80B582B055
S11306D000AFFFF7EBFF03464A2B04D0792B02D07F
S11306E0482B21D022E0164B1B699BB203F03F0339
S11306F09BB21B02FB80124B9B6903F0F0039AB27E
S1130700FB881343FB800E4BDB6903F0F0031B09EA
S11307109AB2FB881343FB80FB88B3F5017F01D3B6
S1130720084B09E0084B07E0074B05E007484FF486
S11307309F71FFF7F1FD002318460837BD4680BDC1
S1130740D0FF0FE000366E010048E801E08A0000A7
S113075080B584B000AF78600123FB60FFF7B6FF7B
S113076002467B689A4204D30023FB600023BB60EB
S11307700BE0FFF7ABFF03465A007B689A4202D3B3
S11307800123BB6001E00223BB6008481E21FA6814
S1130790FFF734FF0549054B5B6823F48072BB689F
S11307A01B0213434B601037BD4680BD00800C40D4
S11307B080B582B000AF05481E21FFF735FF786091
S11307C07B6818460837BD4680BD00BF00800C40DA
S11307D080B582B000AF244B5B6903F4E063B3F5EA
S11307E0007F1CD0B3F5007F05D8002B25D0B3F5CE
S11307F0807F1FD02AE0B3F5C06F24D0B3F5E06F3B
S11308001ED0B3F5407F21D1FFF742FF0346122BE0
S113081002D9164B7B6021E0154B7B601EE0FFF78D
S113082037FF0346122B02D9124B7B6016E0124BA2
S11308307B6013E0114B7B6010E0114B7B600DE09B
S1130840104B7B600AE0104B7B6007E000237B6069
S11308500E4840F2BD11FFF75FFD00BF7B681846EC
S11308600837BD4680BD00BF00800C40804F120099
S113087040420F0040B56400C0CF6A00C0D8A70052
S1130880809FD500406F4001003FAB01E08A00002B
S113089080B582B000AF0F4800F0D2FA0346FB7077
S11308A0FB78072B05D0092B07D106F02BF97860CC
S11308B00BE0FFF78DFF786007E000237B600648BC
S11308C040F2F711FFF728FD00BF7B681846083790
S11308D0BD4680BD06000C00E08A000080B485B0EF
S11308E000AF78603960204B5B6803F00703FB605E
S11308F0FB68012B01D9042B02D10023FB7202E017
S11309000123FB7200BF7B68184A934207D9FB7A24
S1130910002B01D0052300E00423FB6016E07B6874
S1130920124A93420BD87B68114A934207D9FB7A47
S1130930002B01D0032300E00123FB6006E0FB7AD7
S1130940002B01D0022300E00023FB600649064B84
S11309505B6823F00702FB6813434B601437BD4602
S11309605DF8047B704700BF00000C400048E801BC
S11309700024F40080B582B000AF0D4BDB6B002B7C
S113098014BF01230023FB71094B41F67132DA6372
S113099006F0AEF8034618460021FFF79FFFFB79E7
S11309A0002B02D0024B0022DA630837BD4680BD1B
S11309B000000C4080B584B000AF786039600C4B07
S11309C0DB6B002B14BF01230023FB73084B41F6A0
S11309D07132DA6378683968FFF780FFFB7B002B9C
S11309E002D0034B0022DA631037BD4680BD00BF3E
S11309F000000C4090B585B000AF78600023BB6068
S1130A007B683B4A934208D03A4A934205D03A481D
S1130A104FF48061FFF780FC00E000BF786800F0CD
S1130A200FFA0346FB607B68314A934203D0314A94
S1130A30934206D00CE0314B9B6A03F00303FB6046
S1130A400CE02E4B9B6A03F00C039B08FB6005E053
S1130A50294840F22F41FFF75FFC00BFFB68032BDE
S1130A6039D801A252F823F09F0A0000790A000045
S1130A70810A0000890A000006F0D6F8B86032E066
S1130A8006F0E6F8B8602EE006F018F80446FFF722
S1130A908FFE0346013324FA03F3BB6023E00023F3
S1130AA0BB607B68124A934203D07B68114A93422D
S1130AB010D1124B9A6A7B680D498B4201D11023E5
S1130AC000E0142322FA03F3002B03D006F0B6F857
S1130AD0B86008E007E00023BB60074840F25A41D1
S1130AE0FFF71AFC00BFBB6818461437BD4690BD1B
S1130AF002001A0003001C00E08A000000800C4081
S1130B0080B483B000AF7860094B5B6D03F00103E0
S1130B10002B00D006E000BF054B1A6D7B68134024
S1130B20002BF9D10C37BD465DF8047B704700BF3C
S1130B3000800C4080B582B000AF104800F080F90E
S1130B400346FB70FB78032B07D0092B09D0022B3B
S1130B500BD106F07DF878600AE006F065F878605D
S1130B6006E005F0CFFF786002E000237B6000BF61
S1130B707B6818460837BD4680BD00BF07232200A6
S1130B8080B586B000AF78600B46FB7000233B61F4
S1130B907B681B0A03F00F03013B092B33D801A226
S1130BA052F823F0E10B0000E70B0000CD0B00002E
S1130BB0070C0000070C0000ED0B0000F70B000011
S1130BC0070C0000070C0000010C00001B4B7B61AC
S1130BD01B4800F043F803461846FFF7B9FD18E038
S1130BE0184B7B6115E0184B7B6112E0174B7B615E
S1130BF001233B610DE0164B7B6110233B6108E050
S1130C00144B7B6105E0144840F62B01FFF784FB8D
S1130C1010E07B681B0B03F01F03FB603B69002B98
S1130C2002D03869FFF76CFFFB787869F9681A46D7
S1130C30FFF7E4FC1837BD4680BD00BF40800C4080
S1130C400043020008800C4044800C4058800C4053
S1130C5060800C4078800C40E08A000090B585B03C
S1130C6000AF78607B6803F47813B3F5B01F00F02D
S1130C70AB80B3F5B01F1AD8B3F5402F00F0BF8096
S1130C80B3F5402F08D8B3F5003F3CD0B3F5802F1F
S1130C902DD0002B27D0BEE0B3F5801F3CD0B3F598
S1130CA0A01F47D0B3F5602F00F0AD80B3E0B3F5DB
S1130CB0081F00F0AC80B3F5081F0AD8B3F5D01FA5
S1130CC025D0B3F5E01F7AD0B3F5C01F00F08980BA
S1130CD0A1E0B3F5201F4ED0B3F5281F62D0B3F5C1
S1130CE0181F35D097E005F00DFFF8609BE005F084
S1130CF009FFF8604E4B9B6803F00F031A46FB682C
S1130D00D340FB608FE005F0D9FEF8608BE04948E2
S1130D10FFF770FEF86086E04648FFF76BFEF86068
S1130D20434B9B6E03F0F0031B091A46FB68D34048
S1130D30FB6078E03F48FFF75DFEF8603C4B9B6E3C
S1130D4003F470631B0A1A46FB68D340FB606AE035
S1130D503848FFF74FFEF860354B9B6E03F4405361
S1130D601C0B1020FFF776FC034623441A46FB684D
S1130D70D340FB6057E02F48FFF73CFEF8602C4B54
S1130D809B6E03F440531B0B1A46FB68D340FB6075
S1130D90274BDB6F03F007030133FA68B2FBF3F36D
S1130DA0FB6040E02348FFF725FEF860204B9B6E74
S1130DB003F003031A46FB68D340FB6033E01E488C
S1130DC0FFF718FEF8602EE01B48FFF713FEF860EB
S1130DD0174B1B6F03F003031A46FB68D340FB60F9
S1130DE021E01548FFF706FEF860114B1B6F03F076
S1130DF030031B091A46FB68D340FB6013E0FFF77E
S1130E0047FDF8600FE0FFF7E3FCF8600BE0FFF745
S1130E1091FEF86007E00023FB6008484FF412617C
S1130E20FFF77AFA00BFFB6818461437BD4690BD39
S1130E3000800C4002001A0003001C00E08A00003D
S1130E4080B584B000AF78600123FB737B6803F046
S1130E500F03BB60BB68013B062B00F2938001A229
S1130E6052F823F0810E0000B70E0000F30E0000CC
S1130E70850F0000850F00002F0F0000510F0000A8
S1130E80474BDB6A03F47053B3F5805F09D0B3F5C5
S1130E90005F03D0B3F5006F06D008E00223FB73B4
S1130EA008E00323FB7305E00423FB7302E005233E
S1130EB0FB7300BF6EE03A4B9B6A03F00303022B03
S1130EC006D0032B07D0012B08D10323FB730FE0BB
S1130ED00223FB730CE00623FB7309E0304B9B6A8F
S1130EE003F48033002B02D00A23FB7300E000BF1D
S1130EF050E02B4B9B6A03F00C03082B06D00C2B01
S1130F0007D0042B08D10323FB730FE00223FB73E8
S1130F100CE00623FB7309E0214B9B6A03F4801366
S1130F20002B02D00A23FB7300E000BF32E01C4B0D
S1130F301B6803F08053002B03D0B3F1805F03D010
S1130F4028E00723FB7302E00923FB7300BF21E0C1
S1130F50134BDB6A03F46033B3F5803F08D0B3F579
S1130F60003F08D0B3F5004F08D10923FB7308E014
S1130F700223FB7305E00323FB7302E00123FB73ED
S1130F8000BF07E00023FB73064840F6D141FFF79A
S1130F90C3F900BFFB7B18461037BD4680BD00BFB8
S1130FA000800C40E08A000080B588B000AF786013
S1130FB00B46FB700323FB610323FB7600233B6199
S1130FC07B6803F00F03FB60FB68013B062B00F218
S1130FD0438101A252F823F0F50F0000E310000052
S1130FE0E31000005912000059120000B111000072
S1130FF0E7110000FB78023B082B52D801A252F8FB
S113100023F000BF29100000331000003D10000041
S11310107F100000A3100000A3100000A310000024
S1131020A3100000971000000423FB610023FB764B
S11310303DE00323FB610123FB7638E00223FB61DF
S11310400223FB76FFF742FB034601331846FFF702
S11310507FFB05F0D7FD0246844B9A4206D9844AA9
S1131060834B1B6843F06003136020E0804A804B8D
S11310701B6823F0600343F02003136017E001238F
S1131080FB610323FB76FFF721FB0346013318467C
S1131090FFF75EFB0BE0774840F67651FFF73CF92B
S11310A0E0E0744840F67B51FFF736F9DAE0FB7E66
S11310B018460121012200F0E3F8FFF75BFC6C4ABB
S11310C0FB6953626C48FFF7C9FD03461846FFF7F6
S11310D03FFB05F0F3FCB860B8680021FFF76AFC39
S11310E0C0E0FB78013B092B3CD801A252F823F065
S11310F0191100001F1100002F11000065110000DC
S1131100651100003F110000651100006511000029
S1131110651100005B11000000237B6128E00020C2
S11311200121012200F0ACF802237B6120E00120C0
S11311300121012200F0A4F801237B6118E005F0ED
S1131140BDFCB860B868FFF703FB4C4804210122DA
S1131150FFF754FA03237B610AE000237B61012338
S11311603B6105E0434840F61D61FFF7D5F879E09F
S1131170FB68022B0DD13E493D4B9B6A23F480331F
S113118023F003037A691A433B691B0413438B62FC
S113119068E03749364B9B6A23F4801323F00C0331
S11311A07A6992001A433B691B0513438B6259E029
S11311B0FB78072B02D0092B07D00DE02C4A2C4BCF
S11311C01B6823F0805313600CE0294A284B1B68EA
S11311D043F08053136005E0264840F67861FFF73A
S11311E09BF83FE03EE0FB78032B13D0092B21D082
S11311F0022B2AD100200121012200F041F81C4BCE
S113120040225A6200BF1A4BDB6A03F48033002B7E
S1131210F9D020E001200121012200F031F8144B23
S113122060225A6200BF124BDB6A03F40033002BC6
S1131230F9D010E00E4B20225A6200BF0C4BDB6A3F
S113124003F40043002BF9D005E00A4840F6B761E7
S1131250FFF762F806E005E0064840F68C71FFF7F8
S11312605BF800BF2037BD4680BD00BF0048E801E1
S113127000800C40E08A00000043020040800C40E3
S113128080B586B000AF0346FB710B46BB711346B5
S11312907B71FB79042B32D801A252F823F000BFF2
S11312A0ED120000DF120000C3120000B5120000AE
S11312B0D112000001233B610223FB6001237B6107
S11312C023E004233B610823FB6003237B611CE0D0
S11312D010233B612023FB6005237B6115E0402341
S11312E03B618023FB6007237B610EE04FF4807336
S11312F03B614FF40073FB6009237B6105E00F48F9
S113130041F25631FFF708F814E0BB79002B0ED0F8
S11313100B4A3B6913627B79002B0BD000BF094851
S11313207969FFF781F90346002BF8D002E0044AFB
S1131330FB6813621837BD4680BD00BFE08A000019
S113134000800C402C800C4080B483B000AFEFF3DD
S113135010833B603B687B6072B67B6818460C3731
S1131360BD465DF8047B704780B483B000AF7860FD
S11313707B68002B00D162B60C37BD465DF8047B58
S1131380704700BF80B500AF05F098FB80BD00BF7B
S113139080B400AF034B4AF6E8529A60BD465DF84C
S11313A0047B704700600C4080B400AF034B002204
S11313B0C3F88420BD465DF8047B704700800C4070
S11313C080B400AF044B45F60E02C3F88420BD463A
S11313D05DF8047B704700BF00800C4080B584B08A
S11313E000AF0346FB71FB79002B0BD12B4BDB6A5F
S11313F02B4A13601120FFF723FD03461A46294B9D
S11314001A7047E0254BD3F8843003F00103FB60E6
S1131410FFF7D6FF0023BB60214B1B6803F00103D9
S1131420BA681343BB601E4B1B6803F01003BA6811
S11314301343BB601A4B1B6803F04003BA681343A1
S1131440BB60174B1B6803F00403BA681343BB600B
S1131450134B1B6803F48073BA681343BB600F4AD1
S1131460BB6813620F4B1B78052B05D00D4B1B7803
S113147011201946FFF798FD094B1B6803F001037F
S1131480002B02D1054B02221A62FB68002B01D00B
S1131490FFF78AFF1037BD4680BD00BF00800C40B7
S11314A0280100202C01002080B483B000AF164B2B
S11314B01B699BB203F03F039BB21B02FB80124BE0
S11314C09B6903F0F0039AB2FB881343FB800E4B35
S11314D0DB6903F0F0031B099AB2FB881343FB801A
S11314E0FB88B3F5827F03D3FB88B3F5017F01D179
S11314F0012300E0002303F00103DBB218460C379C
S1131500BD465DF8047B7047D0FF0FE080B586B020
S113151000AF0346FB71FB79002B02D00020FFF7DC
S11315205DFF1A4A194B1B6943F004031361FFF76B
S1131530BBFF0346FB75FB7D002B11D0144B1A68CF
S1131540144B1340FB60124AFB68C2F88030104B06
S11315505B6823F046033B610D4A3B69C2F8843063
S113156030BFFB7D002B05D0094AFB681360084A95
S11315703B695360FB79002B03D00120FFF72EFF5A
S113158001E0FFF7FFFE1837BD4680BD00ED00E027
S113159000E100E09CF1FD0080B586B000AF034699
S11315A0FB71FB79002B02D00020FFF717FF234BC0
S11315B0D3F8843003F001037B61FFF701FF1F4B75
S11315C04FF420721A627B69002B01D0FFF7ECFE06
S11315D01B4A1B4B1B6943F004031361FFF764FFB1
S11315E00346FB74FB7C002B11D0164B1A68164B78
S11315F01340BB60134ABB68C2F88030114B5B6870
S113160023F04603FB600F4AFB68C2F8843030BF06
S1131610FB7C002B05D00B4ABB681360094AFB68AE
S11316205360FB79002B03D00120FFF7D7FE01E0C4
S1131630FFF7A8FE1837BD4680BD00BF00800C40F0
S113164000ED00E000E100E09CF1FD0080B500AF9A
S11316500020FFF7C3FE80BD80B500AF0120FFF777
S1131660BDFE80BD80B584B000AF114B1B6823F074
S11316700C0343F00803BB600D4B1B6843F00C03E1
S11316807B60FFF785FE0023FB6008E0084ABB6827
S11316901360074A7B681360FB680133FB60FB68D7
S11316A0032BF3DD024ABB6813601037BD4680BDCF
S11316B000600C4080B582B000AF03463960FB7116
S11316C0FB79002B1FD0FB79012B19D0FB79022B5E
S11316D013D0FB79032B0DD0FB79042B07D0FB79B6
S11316E0052B02D141F6FF730FE000230DE04FF606
S11316F0FF730AE04FF6FF7307E04FF6FF7304E051
S11317004FF6FF7301E04FF6FF733A68134103F09D
S11317100103002B04D10B484FF45D71FEF7FCFD6F
S11317200949FA793B68012000FA03F31846134685
S1131730DB0013449B000B44103358600837BD464C
S113174080BD00BFF48A00000060004080B582B014
S113175000AF03463960FB71FB79002B1FD0FB7986
S1131760012B19D0FB79022B13D0FB79032B0DD05D
S1131770FB79042B07D0FB79052B02D141F6FF73CB
S11317800FE000230DE04FF6FF730AE04FF6FF73FE
S113179007E04FF6FF7304E04FF6FF7301E04FF6E6
S11317A0FF733A68134103F00103002B04D10B4883
S11317B040F2A131FEF7B0FD0949FA793B680120F6
S11317C000FA03F318461346DB0013449B000B4452
S11317D0103318600837BD4680BD00BFF48A00008E
S11317E00060004090B585B000AFB9607B600346EF
S11317F0FB731346BB73FB7B002B1FD0FB7B012BBE
S113180019D0FB7B022B13D0FB7B032B0DD0FB7B6E
S1131810042B07D0FB7B052B02D141F6FF730FE0AD
S113182000230DE04FF6FF730AE04FF6FF7307E065
S11318304FF6FF7304E04FF6FF7301E04FF6FF73BA
S1131840BA68134103F00103002B04D1374840F276
S11318500F11FEF761FDBB7B002B0DD07B68002BC5
S113186005D0FB7B1846B968FFF770FF04E0FB7BEB
S11318701846B968FFF71EFFBB68072B1CD82C4C11
S1131880FA7B2B48F97B0B46DB000B449B0003449B
S11318905968BB689B0018460F238340DB430B4009
S11318A0B97BB8688000814019431346DB001344B8
S11318B09B002344596024E01D4CFA7B1C48F97BAF
S11318C00B46DB000B449B00034408331968BB68D8
S11318D003F18043083B9B0018460F238340DB43FE
S11318E01940B87BBB6803F18043083B9B0000FAB6
S11318F003F319431346DB0013449B0023440833CA
S11319001960BB7B002B0DD17B68002B05D0FB7BC2
S11319101846B968FFF71AFF04E0FB7B1846B9685C
S1131920FFF7C8FE1437BD4690BD00BF508B0000C2
S11319300060004080B485B000AF78607B68FB60D5
S1131940FB6893FAA3F3BB60BB68B3FA83F318464E
S11319501437BD465DF8047B704700BF80B487B080
S113196000AFF860B9607A60FB6803F10473DA00D1
S1131970BB6813449B007B617B697A681A601C37DF
S1131980BD465DF8047B704780B584B000AF034664
S11319900A46FB711346BB71FB791846FFF7CAFF71
S11319A0F860BB79002B14BF01230023DBB2044889
S11319B0F9681A46FFF7D2FF1037BD4680BD00BF55
S11319C000A00C4080B584B000AF78607B68002B29
S11319D003D11B483E21FEF79FFC1A4B5B69DBB227
S11319E003F00F03DBB29B00FB73164B1B6903F080
S11319F0C0039B09DAB2FB7B1343FB737B68FA7B5E
S1131A009A70104B1B69DBB203F03F03DAB27B68B8
S1131A105A700C4B9B6903F0F0031B09DBB21B01EA
S1131A20FB73084BDB6903F0F0031B09DAB2FB7BA1
S1131A301343FB737B68FA7B1A701037BD4680BD75
S1131A40648B0000D0FF0FE080B483B000AF034686
S1131A50FB71084997F907305B09FA7902F01F0214
S1131A60012000FA02F241F823200C37BD465DF84C
S1131A70047B704700E100E080B483B000AF03460C
S1131A80FB71094997F907305B09FA7902F01F02E3
S1131A90012000FA02F2603341F823200C37BD46DE
S1131AA05DF8047B704700BF00E100E080B483B0C0
S1131AB000AF03463960FB7197F90730002B0BDA4E
S1131AC00D49FB7903F00F03043B3A68D2B252018B
S1131AD0D2B20B441A7609E0084997F907303A68FC
S1131AE0D2B25201D2B20B4483F800230C37BD4664
S1131AF05DF8047B704700BF00ED00E000E100E00A
S1131B0080B487B000AFF860B9607A60FB6803F115
S1131B100473DA00BB6813449B007B617B697A68B9
S1131B201A601C37BD465DF8047B704780B483B0EF
S1131B3000AF7860034A7B6813630C37BD465DF8D9
S1131B40047B70470010084080B483B000AF786015
S1131B500549054B5A6B7B68DB4313404B630C37D9
S1131B60BD465DF8047B70470010084080B483B024
S1131B7000AF78600549054B5A6B7B6813434B6390
S1131B800C37BD465DF8047B704700BF0010084069
S1131B9080B582B000AF0346FB71FB7983F001038B
S1131BA0DBB2002B05D10F4B1B6803F00303002BA2
S1131BB007D1FB79002B04D00B484FF48B71FEF74F
S1131BC0ABFBFB79002B05D0064803210022FFF76D
S1131BD097FF04E0034803210122FFF791FF083730
S1131BE0BD4680BD001008407C8B000080B500AF6E
S1131BF005F0C6FB80BD00BF80B584B000AF0020F7
S1131C00FEF7D6FC024632239A420AD00020FFF7A0
S1131C10BFFF322300201946FEF7B0FC0120FFF776
S1131C20B7FF0720FFF782FFEFF311824FF0BF03E6
S1131C3083F31188BFF36F8FBFF34F8FBA607B605C
S1131C4004F0ACF9F860FB68002B07D0074B4FF0A9
S1131C5080521A60BFF34F8FBFF36F8F00233B6036
S1131C603B6883F311881037BD4680BD04ED00E066
S1131C70B0B586B000AF1C4B3C1D1D460FCD0FC444
S1131C802B68236019480121FEF77AFF0220002106
S1131C90FFF77AFE02237B714FF440533B8101230B
S1131CA0FB6001237B753B1D1846FEF7D9FB022020
S1131CB0FFF74AFF1F20FF21FFF7F8FE1F20FFF761
S1131CC0DBFE1F20FFF7C0FE322300201946FEF77B
S1131CD055FC0220FFF72AFF0220FFF747FFFEF71B
S1131CE07DFC1837BD46B0BDD88B00000043020010
S1131CF080B487B000AF0346FB710B46BB7113463B
S1131D007B7100237B610023FB74234B1B68FB6006
S1131D1037E0FB681B78FA799A4207D1FB685B7855
S1131D20BA799A4202D1FB687B612DE07B79002B62
S1131D3023D1FB685B78C3F10503012202FA03F3A4
S1131D40DBB2013BFB72FB7ADB43BB72FB681A78A4
S1131D50BB7A13407B72FA79BB7A13403B727A7A6E
S1131D603B7A9A4209D1FB685B78FA7C9A4204D8A0
S1131D70FB687B61FB685B78FB74FB68D3F8073016
S1131D80FB60FB68002BC4D17B6918461C37BD4639
S1131D905DF8047B704700BF3001002080B584B03B
S1131DA000AF0346FB71FB79184605210022FFF7BB
S1131DB09FFFF860FB68002B01D1002302E0FB6861
S1131DC0D3F8033018461037BD4680BD80B584B0C3
S1131DD000AF0346FB71FB79184605210022FFF78B
S1131DE087FFF860FB68002B01D1FF2301E0FB684B
S1131DF09B7818461037BD4680BD00BF80B586B0BD
S1131E0000AF3A601A460346FB710B46BB7113469A
S1131E107B713B68002B02D16FF0010354E0FB7926
S1131E20202B04D100233B6100237B6103E0BB79B9
S1131E303B61FB797B617B69DAB23B69DBB21046BB
S1131E4019460122FFF754FFF860FB68002B2BD1E1
S1131E500B2000F02DFEF860FB68002B02D14FF040
S1131E60FF3331E0FB680022DA7100221A7200228B
S1131E705A7200229A72164B1B68002B03D1144A23
S1131E80FB68136010E0124B1B68BB6003E0BB6887
S1131E90D3F80730BB60BB68D3F80730002BF6D10A
S1131EA0BB68FA68C3F807207B69DAB2FB681A706A
S1131EB03B69DAB2FB685A70FB683A68C3F80320DE
S1131EC0FB687A799A70002318461837BD4680BD9E
S1131ED03001002080B586B000AFF860B9607A6048
S1131EE0BB687B61BB681A7B1209D2B25B7B03F0CF
S1131EF001031B011343DBB21846FFF767FF0346D8
S1131F00FF2B0DD1BB681A7B1209D2B25B7B03F0A5
S1131F1001031B011343DBB21A467B699A7110E07B
S1131F20BB681A7B1209D2B25B7B03F001031B016D
S1131F301343DBB21846FFF749FF03461A467B6991
S1131F409A71BB68D3F80A30184601F0C1F9024609
S1131F50BB68C3F80A207B691B899BB204339AB21D
S1131F607B691A817B690022DA717B6901225A70CC
S1131F70094B1A687B689BB2104679691A4600F0CF
S1131F80EBF90346002B02D06FF00A0300E00023B4
S1131F9018461837BD4680BD0000002090B583B0B8
S1131FA000AF786039607B68002B00D131E07B683A
S1131FB01B899BB2032B06D97B681B899BB240F219
S1131FC0F632934208D9144B9B6A0133124A936246
S1131FD0786800F063FE1CE07B681B899BB2043BBD
S1131FE09AB27B681A810D4A7B6813600B4B1C689C
S1131FF00A4B1B68D3F80A30184601F083F90346EC
S1132000C4F80A30054B1B68184603493A6801F0C6
S1132010DBFC0C37BD4690BD0400002034010020D9
S113202080B584B000AF0346B9607A60FB730D4A93
S1132030BB681360FB7B1846B9687A6800F0CCFA79
S11320400346002B05D0084805F036FB6FF00A0361
S113205003E0064801F082F9002318461037BD4614
S113206080BD00BF00000020EC8B000004000020B5
S113207090B585B000AFF860B9607A60BB681A7B30
S11320801209D2B25B7B03F001031B011343DBB2E1
S11320901C4601F0A7F903469C4204D0B86800F03E
S11320A037FE002305E0B8680449002201F08CFCE7
S11320B0002318461437BD4690BD00BF40000020E1
S11320C080B483B000AF0346FB71084997F9073029
S11320D05B09FA7902F01F02012000FA02F241F8CA
S11320E023200C37BD465DF8047B704700E100E017
S11320F080B483B000AF0346FB71094997F90730F8
S11321005B09FA7902F01F02012000FA02F260333F
S113211041F823200C37BD465DF8047B704700BFAF
S113212000E100E080B483B000AF03463960FB7186
S113213097F90730002B0BDA0D49FB7903F00F03F5
S1132140043B3A68D2B25201D2B20B441A7609E087
S1132150084997F907303A68D2B25201D2B20B4417
S113216083F800230C37BD465DF8047B704700BF3D
S113217000ED00E000E100E080B582B000AF03466E
S1132180FB7113480121FEF7FBFC02F09BFB0020CE
S1132190FFF7AEFF0020FFF793FF0E4B03F58053CC
S11321A00C334FF000421A600A4A0B4BFF3323F002
S11321B0FF039360074AFB795B0143F0010353601B
S11321C000200521FFF7AEFF0837BD4680BD00BFE4
S11321D00003020000200C403CDA012080B483B0EC
S11321E000AF0346FB71084997F907305B09FA7998
S11321F002F01F02012000FA02F241F823200C37FA
S1132200BD465DF8047B704700E100E080B483B014
S113221000AF03463960FB7197F90730002B0BDAE6
S11322200D49FB7903F00F03043B3A68D2B2520123
S1132230D2B20B441A7609E0084997F907303A6894
S1132240D2B25201D2B20B4483F800230C37BD46FC
S11322505DF8047B704700BF00ED00E000E100E0A2
S113226080B483B000AF786039607B683A681A63E1
S11322700C37BD465DF8047B704700BF80B483B063
S113228000AF786039607B685A6B3B681A437B689F
S11322905A630C37BD465DF8047B704780B400AFC9
S11322A0034B9B6818331846BD465DF8047B7047A2
S11322B000200C4080B586B000AFF8600B467A6011
S11322C0FB72FB68002B08D11F4B1B681E4A126867
S11322D0126842F008021A6033E0FB68012B30D127
S11322E0FFF7DCFF03461B889BB21A4643F6F073E4
S11322F013401B119BB2C3F57D7301339BB2FB8268
S1132300124B1B78DBB2002B06D0104B00221A7044
S1132310FB8A013B9BB2FB820D4B1A6807F1160343
S1132320104619460022002302F0DCFF0346012B6D
S113233007D0084B1B889BB243F080039AB2054B2D
S11323401A801837BD4680BD480100205101002085
S11323505C0100204401002090B589B002AFF86010
S1132360B9601346FB80414B1A68FB881046002174
S11323701A46002303F080F80346012B02D06FF0C5
S113238002036FE00023FB755DE0394B00221A80E5
S1132390384B1B68374A1268526842F040025A6050
S11323A0344B1B68BA68927902F0FE025A62314BD0
S11323B01B6803F12404BB681B899BB209331A46CA
S11323C0BB6800930192002001210022234602F001
S11323D0D7F9284B1B68274A1268526842F0010259
S11323E05A60254B1A68FB88104600211A460023C0
S11323F003F042F80346012B07D01D4B1B889BB208
S113240043F020039AB21A4B1A80194B1B889BB2D3
S1132410002B0BD0174B1B68164A1268526842F007
S113242020025A60192003F0CFFB09E00F4B1B6810
S1132430184600210022002302F0A4FE002311E02C
S1132440FB7D0133FB75BB685B78FA7D9A429CD3B4
S1132450064B1B68184600210022002302F092FE5E
S11324606FF00A0318461C37BD4690BD5801002082
S113247044010020480100205401002080B58CB0A4
S113248000AF78603960254B254A1A60234B00223F
S11324905A60012387F82430012387F82530214B23
S11324A0BB621E4BFB6207F124030020194602F0B5
S11324B089F903233B7700237B770023BB77002331
S11324C0FB77002387F8203007F11C03002001214B
S11324D01A4602F0BFF901233B7401237B744FF4C5
S11324E0A8137B610D4BBB6107F110030120194652
S11324F002F068F900233B7203237B720023BB7252
S11325000023FB7200233B7307F108030120012120
S11325101A4602F09FF93037BD4680BD38010020CD
S1132520B52200000100150080B500AF074B1B6801
S1132530184603F0E7F8064B1B68184603F0E2F868
S1132540044B1B68184603F0DDF880BD54010020DD
S1132550580100205C01002080B500AF012000215B
S1132560032202F08FFD0246184B1A60012000215D
S1132570032202F087FD0246154B1A600320022154
S1132580002202F07FFD0246124B1A600F4B1B68BB
S1132590002B12D00E4B1B68002B0ED00C4B1B686B
S11325A0184600210022002302F0ECFD0346012B13
S11325B003D1084B1B68002B03D1FFF7B5FFFF23A2
S11325C000E000235BB2184680BD00BF5401002028
S11325D0580100205C01002090B58FB000AF034685
S11325E0B9607A60FB73FFF7B7FF03463B633B6B4D
S11325F0002B01D03B6BAFE0BB68002B1BD1584BC9
S1132600584A1A6058480121FEF7BAFA092387F894
S11326103730022005210B220123FFF7E3F80220C3
S113262004210B220123FFF7DDF850484FF4A011D9
S1132630FFF724FF23E0BB68012B1BD1484B4C4A16
S11326401A604C480121FEF79BFA0A2387F83730B9
S1132650022004210B220123FFF7C4F802200521E4
S11326600B220123FFF7BEF843484FF4A811FFF7EC
S113267005FF04E0FFF758FF6FF001036CE097F9E2
S1132680373018460621FFF7C1FD7B68642B0ED155
S11326903A4B07F120040FCB84E80F00304B1A6843
S11326A007F120031046194602F0F8F917E07B6899
S11326B0B3F5C87F0ED1324B07F110040FCB84E879
S11326C00F00274B1A6807F110031046194602F051
S11326D0E5F904E0FFF728FF6FF001033CE0204B2D
S11326E01B6803229A631E4B1B68FA7B5A611C4BBE
S11326F01A681B4B1B681B6843F4B62343F0120390
S11327001360174B1B68164A1268926942F07F02E5
S11327109A611C4B00221A701B4B01221A70104B39
S11327201B6818461949FFF79BFD0D4B1B6818469B
S11327301749FFF7A3FD97F937301846FFF74EFD09
S1132740074B1B689B6803F00103002B03D0044B69
S11327501B6820225A60002318463C37BD4690BDB2
S11327604801002000A0004000B204000100140051
S113277000A4004000C2040001001500048C000005
S1132780148C00005001002051010020CFCF010023
S113279086CF010090B587B002AFA24B1B689B6A3D
S11327A0FB60FA6840F684031340002B00F09E801F
S11327B0FB6803F00403002B44D09A4B1B680422EB
S11327C05A604FF4806000F01BFA0246964B1A6080
S11327D0954B1B68002B22D0934B1B68914A1268BF
S11327E0D269D2B21A708F4B1B688E4A1268126873
S11327F042F004021A608D4B01221A708A4B1B6846
S11328005C1C884B1B681C33009340F2F533019326
S1132810012001210022234601F0B2FF0BE0814B8D
S11328201B6828225A60824B1B889BB243F04003EA
S11328309AB27F4B1A807B4B1B68184640F6040102
S1132840FFF70EFDFB6803F08003002B1BD0784BD1
S11328501B889BB243F001039AB2754B1A80714BEB
S11328601B6818468021FFF7FBFC6E4B1B686D4A02
S11328701268526842F020025A606E4B1B68184678
S1132880002102F09BFD674B1B689B6A03F4006305
S1132890002B2BD0634B1B689B6803F00203002BB7
S11328A008D0604B1B685F4A1268526842F002020B
S11328B05A601BE05B4B1B685A4A1268526842F02C
S11328C020025A605C4A5C4B9B6A23F001039362CA
S11328D0574B1B889BB243F480739AB2544B1A80B3
S11328E0544B1B681846002102F068FDFB6803F492
S11328F08073002B17D04B4B1B6818464F49FFF7CA
S1132900AFFCFB6823F48033FB60464B1B68454AED
S11329101268126822F008021A60464B1B681846B7
S1132920002102F04BFDFA68454B1340002B2BD0DD
S11329303E4B1B78DBB2002B18D03B4B1B68BB60B3
S11329403D4B03F58053043302221A603D4B1A6851
S1132950BB68083310461946002202F063FE334B6D
S113296000221A70B8680021FFF718FB2D4B1B6872
S11329702C4A1268126822F004021A60294B1B6860
S113298018462F49FFF76CFCFB6803F44643002B01
S113299000F08180FB6803F48043002B07D0244BB4
S11329A01B889BB243F002039AB2214B1A80FB6846
S11329B003F40073002B07D01D4B1B889BB243F01C
S11329C010039AB21A4B1A80FB6803F48063002B3D
S11329D007D0174B1B889BB243F008039AB2144BE1
S11329E01A80FB6803F40043002B07D0104B1B88AC
S11329F09BB243F004039AB20D4B1A800B4B1B7825
S1132A00DBB2002B20D00C4B03F58053043302229D
S1132A101A600C4B1A68BB1D10461946002202F0BE
S1132A2001FE17E0480100204C0100205001002065
S1132A30440100205401002000200C40CFCF0100AD
S1132A40020001005C010020144B03F580530433A1
S1132A5001221A60124B1B68114A1268126822F094
S1132A6004021A600E4B1B6818464FF44641FFF7E8
S1132A70F7FB0B4B1B6820225A600A4B00221A708A
S1132A80094B1B68184600F009F9084B1B681846E7
S1132A90002102F093FC1437BD4690BD00200C4089
S1132AA048010020500100204C0100205401002066
S1132AB080B582B000AF7860786802F045FA0346CA
S1132AC018460837BD4680BD80B582B000AF786037
S1132AD0786802F07FFA0837BD4680BD80B588B0BB
S1132AE002AFF860B9603B601346FB80FA883B6A2A
S1132AF000937B6A0193F868B9683B6802F04CFF65
S1132B0078617B69012B02D04FF0FF3300E0002392
S1132B1018461837BD4680BD80B586B000AF7860D2
S1132B2039607B68324A13603B680E33314A136064
S1132B30304B1B6808333B613B6903339B089B00A4
S1132B403B612B4B1B683A6902FB03F3FB60F8689B
S1132B50FFF7AEFF0246284B1A60274B1B68002B79
S1132B6000D13EE0224B1B681846042102F00AF80B
S1132B700246224B1A60214B1B68002B06D100BF72
S1132B801D4B1B681846FFF79FFF2AE01A4B1B6872
S1132B9018460021FA6804F0F6FC00237B6119E072
S1132BA0154B1A687B69396901FB03F31344BB6055
S1132BB0BB6800221A60BB68BA685A600F4B1A6877
S1132BC007F1080310461946002201F0EBFF7B6968
S1132BD001337B61064B1B687A699A42E0D3002378
S1132BE001E04FF0FF3318461837BD4680BD00BFE3
S1132BF0680100206C0100206401002060010020B5
S1132C0080B584B000AF78600023FB607B6803F17B
S1132C100E021C4B1B689A4206D900201A497A6896
S1132C2000F0ECFA002329E0184B1A6807F10C03B2
S1132C3010461946002201F0E5FFFB68002B05D180
S1132C400020134900F0DAFA002317E0FA68FB6861
S1132C505B6803200F4900F0D1FAFB685A68FB68EF
S1132C609A4205D000200C4900F0C8FA002305E080
S1132C70FB681A6801321A60FB680833184610377B
S1132C80BD4680BD6C010020248C00006001002042
S1132C904C8C00005C8C0000688C000080B584B013
S1132CA000AF78600023FB607B68002B00D12AE032
S1132CB07B68083BBB60BB6803F00303002B00D0B8
S1132CC021E0BB685A68BB689A4200D01BE0BB682D
S1132CD01B68002B00D116E0BB681B68012B04D9CC
S1132CE0BB681A68013A1A600DE0BB6800221A60DA
S1132CF0064B196807F1080207F10C030846114650
S1132D001A4601F06DFF1037BD4680BD60010020FA
S1132D1080B584B000AF78607B68002B04D10020BC
S1132D20264900F06BFA45E07B68083BFB60FB68D2
S1132D3003F00303002B05D0002021497A6800F03A
S1132D405DFA37E0FB685A68FB689A4205D00020B8
S1132D501C497A6800F052FA2CE0FB681B68002BCF
S1132D6006D1FB68002018491A4600F047FA21E012
S1132D70FB681B68012B0BD9FB681A68013A1A60BF
S1132D80FA68FB681B680020104900F037FA11E06C
S1132D90FB6800221A60FB6803200D491A4600F004
S1132DA02DFA0C4B1A6807F10C0310461946002241
S1132DB001F0F8FE1037BD4680BD00BF7C8C0000DA
S1132DC09C8C0000C48C0000E88C0000088D00007E
S1132DD02C8D00006001002080B500AF034B1B6800
S1132DE0184601F02DFF0346184680BD60010020FF
S1132DF080B483B000AF7860002318460C37BD461A
S1132E005DF8047B704700BF90B585B000AF786073
S1132E1039607B68002B02D16FF0010333E03B681B
S1132E20002B09D03B685B7BC3F38113DBB21846EC
S1132E30FFF7DEFFF86001E00023FB607B68FA68BF
S1132E40043253F822203B4610461946002201F072
S1132E50A9FE0346012B15D07B68FA68043253F8A7
S1132E6022407B68FA68043253F82230184601F095
S1132E70E7FE034600200649224600F0BFF94FF062
S1132E80FF3300E0002318461437BD4690BD00BF51
S1132E90388D000080B582B000AF02F03BF80346E5
S1132EA0184604F011FC04F037FC0246304B134082
S1132EB0002B03DA013B63F01F030133DBB2203341
S1132EC0DAB22C4B1A702C4801F0DCFE0346012BBD
S1132ED006D00020294900F091F94FF0FF3343E078
S1132EE000237B602FE000233B600EE0642004217C
S1132EF001F048FE22497B68DA003B68134404333E
S1132F0041F823003B6801333B603B68002BEDDD57
S1132F101B4A7B685B01134400225A707B685B0187
S1132F20174A13440433184601F096FE0346012B56
S1132F3006D00020134900F061F94FF0FF3313E08D
S1132F407B6801337B607B68092BCCDD0E4801F084
S1132F5099FE0346012B06D000200C4900F04EF9DF
S1132F604FF0FF3300E0002318460837BD4680BD0C
S1132F701F000080B4020020B8020020588D000019
S1132F80700100207C8D0000B0020020A08D0000A4
S1132F9080B485B000AF786039600023FB6019E02D
S1132FA0FB685B01104A1344BB60BB685B78002B71
S1132FB00DD0BB681B78002B09D1BB689A687B686D
S1132FC05A403B681340002B01D1BB6806E0FB6804
S1132FD00133FB60FB68092BE2DD0023184614373C
S1132FE0BD465DF8047B70477001002080B584B055
S1132FF000AF78600023FB6019E006E0BB68002B9B
S113300003D0BB681846FFF783FE7B68FA68043276
S113301053F8222007F1080310461946002201F054
S1133020F1FD0346012BE9D0FB680133FB60FB682B
S1133030002BE2DD002318461037BD4680BD00BFDB
S113304080B586B000AF0346FB713048642101F0BF
S113305037FE0346012B05D000202D4900F0CEF8A1
S113306000234FE02B4B1B787B617B695A1C2A4B56
S113307083FB02139910D317C91A0B469B000B4408
S11330805B00D31A7B6100233B611AE07B695B011F
S1133090224A1344FB60FB685B78002B00D113E0E9
S11330A07B695A1C1C4B83FB02139910D317C91A52
S11330B00B469B000B445B00D31A7B613B690133D5
S11330C03B613B69092BE1DDFB685B78012B08D18F
S11330D00020134900F092F80C4801F01BFE002375
S11330E010E0FB6801225A70FB6800225A61FB68F9
S11330F0FA791A707B69DAB2064B1A70034801F048
S113310009FEFB6818461837BD4680BDB002002092
S1133110C48D0000BC020020676666667001002052
S1133120E08D000080B584B000AF78603960002085
S1133130FFF786FFF860FB68002B0DD07A68FB6808
S11331409A603A68FB68DA6001F0E4FE0246FB68C4
S11331509A61F868FFF74AFFFB6818461037BD46C6
S113316080BD00BF80B582B000AF78607B68002B63
S113317006D10020154900F041F86FF0010321E069
S11331807B685B78002B05D10520114900F036F8E7
S1133190002317E00F48642101F092FD0346012B40
S11331A006D000200C4900F029F86FF0020309E072
S11331B07B6800225A707868FFF718FF054801F011
S11331C0A9FD002318460837BD4680BDFC8D0000CC
S11331D01C8E0000B0020020C48D000080B483B0B7
S11331E000AF78607B689B68C3F38533DBB2184615
S11331F00C37BD465DF8047B704700BF0EB480B544
S113320085B000AF0346FB71F023FB60FB79062B0E
S113321007D8FB792B4AD35C83F00103DBB2002B84
S113322000D048E0FB79062B44D801A252F823F0E1
S113323053320000593200004D3200005F3200006A
S1133240653200006B320000713200001323FB6012
S113325011E01223FB600EE01423FB600BE0062355
S1133260FB6008E00323FB6005E00523FB6002E04C
S11332700723FB6000BF07F12003BB60124B1B68F0
S1133280002B07D0104B1B68FA791046F969BA680D
S1133290984710E0FB68DBB2184601F0D9FDF869E5
S11332A0B96804F021FB094804F076F9F02001F034
S11332B0CFFD00E000BF1437BD46BDE8804003B039
S11332C0704700BF7C000020C0020020BC8F0000BB
S11332D080B483B000AF78607B681A0E7B681B06ED
S11332E01A437B6803F47F431B021A437B6803F48D
S11332F07F031B0A134318460C37BD465DF8047B55
S1133300704700BF80B582B000AF78607868FFF77F
S1133310DFFF034618460837BD4680BD80B584B03C
S113332000AF78600C4B1B68FB600DE0FB681B680A
S1133330184679680A2204F0A0FA0346002B00D14B
S113334005E0FB689B6BFB60FB68002BEED1FB6820
S113335018461037BD4680BDC402002080B485B035
S113336000AF7860164B1B68002B06D1144A7B68AB
S113337013607B6800229A631CE0114B1B68FB609E
S113338002E0FB689B6BFB60FA687B689A4203D09F
S1133390FB689B6B002BF4D1FA687B689A4209D0D6
S11333A0FB689B6B002B05D1FB687A689A637B688A
S11333B000229A631437BD465DF8047B704700BF52
S11333C0C402002080B483B000AF0346FB71044AFA
S11333D0FB7913700C37BD465DF8047B704700BF62
S11333E0C802002080B400AF034B1B781846BD46CA
S11333F05DF8047B704700BFC802002080B400AFB2
S1133400034B1B681846BD465DF8047B704700BF3C
S1133410CC02002080B400AF034B1B681846BD46A5
S11334205DF8047B704700BFD002002080B400AF79
S1133430034B1B681846BD465DF8047B704700BF0C
S11334408400002080B584B000AF0346FB71FB7993
S11334501846FFF7B7FFFFF71DFDF860FB68002B68
S113346001D0FB6822E000F0F7F9F860FB68002B5C
S113347001D0FB681AE000F061FAF860FB68002BE9
S113348001D0FB6812E00B48FFF768FFFFF7AAFFC3
S1133490034618460521074AFF23FEF7AFFC202008
S11334A00521054AFF23FEF7A9FC0023184610371F
S11334B0BD4680BD400000200400002080B584B0DB
S11334C000AF78607B6803F00103002B05D0002077
S11334D02C49FFF793FE00234FE07B6803F01003B1
S11334E0002B05D000202849FFF788FE002344E084
S11334F07B6803F00403002B05D000202349FFF769
S11335007DFE002339E07B6803F04003002B05D0E7
S113351000201F49FFF772FE00232EE07B6823F48E
S1133520AA7323F00103002B05D000201949FFF7EB
S113353065FE002321E00120FFF782FDF860FB68AF
S1133540002B01D1002318E07B6803F48073002B67
S11335500CD06420042101F015FB0246FB685A617B
S1133560FB685B69002B04D1002306E0FB680022A2
S11335705A61FB687A68DA61FB6818461037BD4601
S113358080BD00BFF48F00004C900000A4900000A8
S1133590FC9000005891000080B584B000AF7860C2
S11335A039607B68002B01D1002314E07B685B69E0
S11335B0002B01D100230EE07B685A6907F10C034C
S11335C0104619463A6801F01DFB0346012B01D150
S11335D0FB6800E0002318461037BD4680BD00BFDD
S11335E080B584B000AF786039600023FB607B68ED
S11335F0002B03D07B685B78012B01D000230EE005
S11336007B681A6907F10C03104619463A6801F001
S1133610F9FA0346012B01D0002300E0FB681846A9
S11336201037BD4680BD00BFF0B58DB006AFF86061
S1133630B9607A603B60BB68002B04D1002051491B
S1133640FFF7DCFD97E07B68002B03D07B689B6869
S1133650002B06D1FB6800204B491A46FFF7CEFD2C
S113366089E0FB7BC3F34403DBB29E46FB89C3F3CF
S11336700413DBB21E46FB68C3F38533DBB21D467D
S11336807B7BC3F30503DBB21C46FB7BC3F38113D3
S1133690DBB218463B7B1946BB681B899BB21A46B2
S11336A07B681B6800950194029003910492059332
S11336B00420364972463346FFF7A0FDFA68BB681A
S11336C0C3F80A20FB7BC3F34403DBB21C46FFF7B9
S11336D089FE03469C4221D13B7B03F00803002B67
S11336E004D001202A49FFF789FD3FE03B7B03F02A
S11336F00103002B08D001202649FFF77FFD3B7B07
S113370023F00103DBB23B733B7B03F00403002B88
S113371004D001202049FFF771FD27E0BB681A7A25
S11337205B7A1B021343FB827B689B89BB82BB8A47
S1133730002B04D0FA8ABB8A9A4200D916E07B682F
S11337409B687868B9683A6898470346002B00D0AC
S11337500CE07B681B695A1C7B681A617B68DA6A17
S1133760FB8A1A447B68DA62002306E07B689B6963
S11337705A1C7B689A616FF0090318461C37BD46D2
S1133780F0BD00BF7091000098910000B09100005E
S1133790F091000050920000B892000080B586B00D
S11337A000AFF860B9607A60FB68002B06D0BB6894
S11337B0002B03D0FB685B78012B05D00020104957
S11337C0FFF71CFD002316E0FB68DB89C3F3041339
S11337D0DBB21846FEF7E2FA7861FB68D868B9688C
S11337E07A697B68FFF720FF38613B69002B0CBFC7
S11337F001230023DBB218461837BD4680BD00BF45
S11338001C93000080B485B000AF78600023FB6097
S11338107B681F2B01D9002316E00E4A7B6812F83F
S11338203330012B06D10B4A7B68DB0013445B6801
S1133830FB6008E0074B93F80031012B03D1054BE3
S1133840D3F80431FB60FB6818461437BD465DF8B5
S1133850047B7047D402002080B500AF04480021E7
S11338604FF4847203F08FFE0023184680BD00BF1E
S1133870D402002080B582B000AF786039607B68E4
S1133880002B02D16FF001030FE03B6818460421BE
S113389001F078F902467B685A617B685B69002B0A
S11338A002D14FF0FF3300E0002318460837BD462D
S11338B080BD00BF80B582B000AF78600B46FB705E
S11338C07B68002B02D16FF001032BE0FB78202BE7
S11338D007D9002015492022FFF790FC6FF001035F
S11338E020E0FB78124A12F83330002B08D0FB7822
S11338F0002010491A46FFF781FC6FF0030311E022
S1133900FB7802200C497A68FFF778FCFB78084AB8
S1133910DB0013447A685A60FB78054A012102F8F7
S11339203310002318460837BD4680BD909400002C
S1133930D4020020E0940000FC94000080B582B022
S113394000AF00237B601AE0114A7B6852F82330F1
S1133950002B11D10A20082101F014F901460C4A68
S11339607B6842F823100A4A7B6852F82330002B04
S113397002D14FF0FF3306E07B6801337B607B6844
S1133980002BE1DD002318460837BD4680BD00BF8B
S1133990DC03002080B582B000AF7860094B1B685F
S11339A0184679684FF0FF3201F02CF90346012BD9
S11339B002D06FF0020300E0002318460837BD462A
S11339C080BD00BFDC03002080B588B000AFF86084
S11339D0B9607A60FB68002B04D101202F49FFF7FE
S11339E00DFC57E0BB68002B0ED101202C49FFF7DA
S11339F005FC7B68002B03D1F868FFF789F949E0DF
S1133A00F868FFF74BF945E0BB683B61FB687B61F5
S1133A100023BB617B68002B0CD1224ABB6952F89E
S1133A20232007F1100310461946002201F0BAF8CA
S1133A30F8610BE01B4ABB6952F8232007F110031D
S1133A40104619467A6801F0CBF8F861FB69012B3E
S1133A5013D001201449FFF7D1FBBB681B6A5A1C21
S1133A60BB681A627B68002B03D1F868FFF750F932
S1133A7010E0F868FFF712F90CE0BB685B695A1CA8
S1133A80BB685A61BB681B6BFA68128992B21A440C
S1133A90BB681A632037BD4680BD00BF1C9500007B
S1133AA044950000DC0300207095000080B582B0CE
S1133AB000AF786039603B689B7A03F00403002B05
S1133AC00BD000201949FFF799FB7B685B6A5A1CED
S1133AD07B685A626FF0040324E03B689B7A03F02E
S1133AE00803002B0BD000201149FFF787FB7B68EC
S1133AF05B6A5A1C7B685A626FF0040312E03B68ED
S1133B009B7A03F00203002B0BD000200949FFF736
S1133B1075FB7B68DB695A1C7B68DA616FF0040310
S1133B2000E0002318460837BD4680BDA495000078
S1133B30049600005C96000080B584B000AFF86085
S1133B40B9607A607B689B7A03F00103002B0AD08A
S1133B5001200749FFF752FB7B681B899BB2043B9A
S1133B609AB27B681A81002318461037BD4680BD7F
S1133B70B0960000F0B591B006AF786007F1140379
S1133B801846FFF707FF0346002B02D04FF0FF3320
S1133B9072E1BB693B613B695B7BC3F34403DBB20A
S1133BA09E463B691A7B1209D2B25B7B03F0010388
S1133BB01B011343DBB21E463B69DA7A9209D2B287
S1133BC01B7B03F00F039B001343DBB21D463B69D1
S1133BD0DB7AC3F30503DBB21C463B695B7BC3F3AF
S1133BE08113DBB218463B699B7A19463B691B89F2
S1133BF09BB21A467B691B6800950194029003915D
S1133C000492059304209E4972463346FFF7F6FA60
S1133C103B691A7B1209D2B25B7B03F001031B01DF
S1133C201343DBB21C46FFF7DDFB03469C4241D045
S1133C303B691A7B1209D2B25B7B03F001031B01BF
S1133C401343DBB21F2B35D03B691A7B1209D2B266
S1133C505B7B03F001031B011343DBB21846FEF741
S1133C609DF838623B6A002B07D07A693B6A9A4216
S1133C7009D17B699B7B002B05D13B691846FFF773
S1133C8047F80023F8E03B693A69D3F80A3018464C
S1133C9011463A6A0023FFF7C7FC0346002B07D0FE
S1133CA001207849FFF7AAFA3B691846FFF730F874
S1133CB00023E1E07A693B6910461946FFF7F6FEF6
S1133CC00346002B05D03B691846FFF721F8002373
S1133CD0D2E03B69DA7A9209D2B21B7B03F00F037C
S1133CE09B001343DBB21846FFF78CFDF861FB69B8
S1133CF0002B2FD0FB69DB6903F48073002B29D0E0
S1133D00FB69D9697A693B69084611461A46FFF787
S1133D1013FF0346002B05DA3B691846FEF7F8FF4C
S1133D200023A9E0FB695A6907F1100310461946FC
S1133D30002200F037FF0346012B09D0002052492E
S1133D40FFF75CFA3B691846FEF7E2FF002393E0B5
S1133D50002391E03B69D3F80A3018464B49FFF73A
S1133D6017F978627B6A002B6ED1FB69002B05D1B1
S1133D703B691846FEF7CCFF00237DE0FB69D96957
S1133D807A693B69084611461A46FFF7D5FE034691
S1133D90002B05DA3B691846FEF7BAFF00236BE0F7
S1133DA03B695B7BC3F38113DAB2FB7B62F387135A
S1133DB0FB73FFF717FB034603F01F03DAB2FB7B29
S1133DC062F34503FB733B695B7BC3F34403DAB2E1
S1133DD0FB8962F30813FB813B69DB7AC3F30503B8
S1133DE0DAB2FB6862F39333FB603B69DA7A9209D7
S1133DF0D2B21B7B03F00F039B001343DAB27B7B2D
S1133E0062F305037B733B699B7A3B733B69D3F88D
S1133E100A301846F968FFF785F978627B6A002B47
S1133E2009D100201A49FFF7E9F93B691846FEF762
S1133E306FFF002320E0FB695A697B6A5A61FB69C2
S1133E40DA697B6ADA6111E07B6AD9697A693B696C
S1133E50084611461A46FFF76FFE0346002B05DAA3
S1133E603B691846FEF754FF002305E03B69786A76
S1133E70194600F04FFE002318462C37BD46F0BD0E
S1133E800C9700004C9700006497000000FFFF3F70
S1133E908097000080B582B000AF78604FF0FF30AB
S1133EA0FFF768FEFAE700BF80B586B002AF78601E
S1133EB039607B689AB23B6800930B4B01930B48C3
S1133EC00B490023FEF70AFEF860FB68002B06D0BE
S1133ED000200849FFF792F94FF0FF3300E0002378
S1133EE018461037BD4680BDE0030020953E000013
S1133EF0A0970000A497000090B583B000AF78604D
S1133F007B6803F13404FFF791FA0346204619460F
S1133F10142203F0CBFC7B68002283F847207B68E3
S1133F204833184619490C2203F0C0FC7B68002270
S1133F3083F853207B68543318461549092203F04B
S1133F40B5FC7B68002283F85C207B689C1CFFF72F
S1133F5055FA034620461946142203F0A7FC7B6851
S1133F6000225A757B6803F11604FFF753FA0346DF
S1133F70204619461E2203F099FC7B68002283F830
S1133F803320002318460C37BD4690BDC09700006F
S1133F90CC97000080B584B000AF78607B680433B0
S1133FA01846FFF7BBF9F860FB68002B02D16FF0ED
S1133FB001030FE07B689A787B68DB781046052163
S1133FC0FA68FDF71BFF0346002B02D06FF00103D4
S1133FD000E0002318461037BD4680BD80B584B08C
S1133FE000AF78607B6802331846FFF797F9F860F2
S1133FF0FB68002B02D16FF001035AE0FB681B69D8
S11340001846FFF765F902467B68C3F80D20FB6884
S11340105B691846FFF75CF902467B68C3F8112018
S1134020FB689B691846FFF753F902467B68C3F89F
S11340301520FB68DB691846FFF74AF902467B68DE
S1134040C3F81920FB681B6A1846FFF741F90246BA
S11340507B68C3F81D20FB685B6A1846FFF738F9D4
S113406002467B68C3F82120FB689B6A1846FFF769
S11340702FF902467B68C3F82520FB68DB6A1846E3
S1134080FFF726F902467B68C3F82920FB681B6BFF
S11340901846FFF71DF902467B68C3F82D20FB681C
S11340A05B6B1846FFF714F902467B68C3F83120AE
S11340B0002318461037BD4680BD00BF90B583B0BD
S11340C000AF78607B68D3F802301846FFF700F938
S11340D002467B68C3F802207B689B79C82B02D90F
S11340E06FF001030DE0094B1B687A68D11D7A68F3
S11340F0D2F8022014467A689279084621469847F5
S1134100002318460C37BD4690BD00BF8800002030
S113411080B582B000AF78607B68D3F8023018466F
S1134120FFF7D6F802467B68C3F802207B689B79C8
S1134130C82B02D96FF001030BE0084B1B687A68A7
S1134140D2F8022010467A68D11D7A68927998478D
S1134150002318460837BD4680BD00BF88000020F4
S113416080B582B000AF78607B68D3F8023018461F
S1134170FFF7C8F802467B68C3F802207B68D3F8CF
S113418006301846FFF7BEF802467B68C3F80620DF
S11341907B68D3F80230002B07D0144B002B04D0DB
S11341A07B6802331846AFF30080114B002B04D018
S11341B07B6802331846AFF300807B68D3F8023083
S11341C01846FFF785F802467B68C3F802207B682F
S11341D0D3F806301846FFF77BF802467B68C3F82D
S11341E00620002318460837BD4680BD00000000A5
S11341F00000000080B584B000AF786039606FF0D3
S11342000103FB603B680E33BB60BB681B78002B6B
S113421001D0FB684FE0BB685B78013B052B42D8BB
S113422001A252F823F000BF4142000059420000AD
S11342307142000089420000934200009D42000048
S1134240B868FFF759FEF8603B68002242F05D024F
S11342501A7200225A722AE0B868FFF79BFEF860CF
S11342603B68002242F00F021A7200225A721EE0CA
S1134270B868FFF7B3FEF8603B68002242F03502ED
S11342801A7200225A7212E0B868FFF717FFF8603A
S11342900DE0B868FFF73CFFF86008E0B868FFF786
S11342A05FFFF86003E06FF00103FB6000BFBB68D1
S11342B0FF221A70FB6818461037BD4680BD00BF48
S11342C080B58AB000AF786039607868FEF786FF01
S11342D00346062B00F2108101A252F823F000BF1E
S11342E0FD420000154300001F4300000944000084
S11342F04344000085440000BF44000078683968E6
S1134300FFF778FF0346002B03D03868FEF700FD63
S113431004E1F5E002208349FEF770FFF0E03B681A
S11343201B899BB2012B03D13B689B7B552B05D08A
S11343303868FEF7EDFC00233B60E1E000F014FD7B
S113434038623B6A1846FEF7B3FBF861FB69002B41
S11343500FD13B680E331846734903F07EFA3B686D
S11343600E33184603F081FA03469AB23B681A8169
S1134370C6E0F86900F0ECFC3B6AF869194603F002
S1134380A7FA0346BB6100237B6235E03B68002B40
S113439003D1C420FEF734FC38603B68002B00D105
S11343A02EE0BA697B6AD31AC42BA8BFC4239AB27D
S11343B03B681A813B6803F10E017B6AFA691A446F
S11343C03B681B899BB2084611461A4603F0D0F895
S11343D03B681B899BB21A467B6A13447B627868EC
S11343E039680022FFF7DAF90346002B02D1386856
S11343F0FEF78EFC00233B607A6ABB699A42C5DBF8
S1134400F869FEF761FB7BE000F0BAFC03467B61D0
S11344107B691846FEF75CFF03467B613B6803F14A
S11344200E0207F1140310461946042203F0A0F803
S11344303B68002242F004021A7200225A7200BF42
S11344405EE03B680E3307F1100210461946042261
S113445003F08EF83B691846FEF754FF03463B61B0
S11344603B69324A934202D100F0C2FC05E03B6949
S11344702F4A934201D100F0D7FC3868FEF748FC7C
S113448000BF4BE0FEF7A8FC0346FB60FB68184640
S1134490FEF71EFF0346FB603B6803F10E0207F1C3
S11344A00C0310461946042203F062F83B6800220C
S11344B042F004021A7200225A7200BF20E000F097
S11344C035FD0346BB60BB681846FEF701FF034693
S11344D0BB603B6803F10E0207F10803104619465E
S11344E0042203F045F83B68002242F004021A72E9
S11344F000225A7200BF03E03868FEF709FC0DE0A1
S11345003B68002B0AD0786839680022FFF746F927
S11345100346002B02D13868FEF7FAFB2837BD4664
S113452080BD00BFD8970000F09700000780078087
S11345309A52E5D180B483B000AF0346FB710949B8
S113454097F907305B09FA7902F01F02012000FA9B
S113455002F2203341F823200C37BD465DF8047B7A
S1134560704700BF00E100E080B487B000AFF8609E
S1134570B9607A60FB6803F10473DA00BB68134422
S11345809B007B617B697A681A601C37BD465DF8C5
S1134590047B704780B489B000AF78600846114648
S11345A01A460346FB700B46BB7013467B707B6850
S11345B01A013C4B9B681344BB61BB78002B02D0AF
S11345C0BB69FB6105E07B681A01364BDB68134469
S11345D0FB61BB69DB687B617B69002B02D0BA7825
S11345E07B691A72FB6A002B14D0FB699B6803F089
S11345F040639B0E3B613B69032B03D1FB69FA6A61
S11346001A6007E03B693A6B9A40FB6A13441A4606
S1134610FB691A60BB6A002B12D0FB699B689B0F75
S11346203B613B69032B03D1FB69BA6A5A6007E01B
S11346303B693A6B9A40BB6A13441A46FB695A6059
S11346407B68012202FA03F3FB607B78002B03D022
S1134650144AFB68936102E0124AFB68D361BB7899
S1134660002B03D00F4AFB68536302E00D4AFB683A
S11346701363FB699B6823F47F5323F03703BB6008
S11346803B6B1B01BA681343BB60FB78BA681343E6
S1134690BB60FB69BA689A602437BD465DF8047B49
S11346A0704700BF00200C4080B58AB000AF334B88
S11346B003F580531B68BB61304B03F580530C3307
S11346C01B68BA691340BB612C4B9B6B7B61BA6955
S11346D07B6913403B620023FB6149E000237B625A
S11346E03BE03B6A03F00103002B30D0234B9B6873
S11346F03B6101227B6A02FA03F3FB601F4B03F563
S113470080530833FA681A607B6A1B013A691344C0
S1134710DB68BB60BB68002B19D0BB681B7A7B606D
S1134720BB681B7A83F00103DAB2BB681A72BB68F8
S11347301B68002B0BD0BB681B68786A7A68002A58
S113474014BF01220022D1B2BA68526898473B6A6A
S11347505B083B627B6A01337B623B6A002BC0D1FE
S11347607B69DA43BB6913403B62FB690133FB613C
S1134770FB69012BB2DD2837BD4680BD00200C400B
S113478090B589B004AFF8607B600B46FB721346AA
S1134790BB72FA7ABC7A7B6800933B6A01937B6AAA
S11347A00293F86801212346FFF7F4FE044AFB68EC
S11347B0012101FA03F393621437BD4690BD00BF93
S11347C000200C4080B584B000AF786039601F4B86
S11347D09B68FB607B681B01FA6813443A68926823
S11347E0DA603B681B78002B06D0184A7B680121ED
S11347F001FA03F3936305E0144A7B68012101FA8B
S113480003F3D36311493B685A687B6803F58863F3
S113481041F823203B685B78002B0FD00B4A7B6860
S1134820012101FA03F3194602F580530833196094
S1134830074879680122FFF797FE04E00448796885
S11348400022FFF791FE1037BD4680BD00200C40CA
S11348500C300C4080B487B000AFF8600B467A602F
S1134860FB72FB7A002B03D0154B9B687B6102E043
S1134870134BDB687B61FB681B017A6913447B6122
S11348807B681B789A077B689B781B071A437B68B5
S11348905B789B061A437B689B781B0613431A4676
S11348A07B681B799B0413437A68D27892031A437A
S11348B07B699A601C37BD465DF8047B704700BF76
S11348C000200C4080B582B000AF0020FFF732FE1C
S11348D01C4B00225A601B4B40F6FF72DA61194BE5
S11348E040F6FF725A62174B40F6FF72DA62154BBC
S11348F040F6FF725A63134B40F6FF72DA63114BB2
S11349000122DA640F4B03F580530C3300221A6042
S11349100C4B03F5805308330B4A1A6000237B6069
S113492009E0084A7B6803F58863002142F82310F4
S11349307B6801337B607B680B2BF2DD0837BD4657
S113494080BD00BF00200C40FF0F008080B487B002
S113495000AFF860B9607A60FB6803F10473DA00B1
S1134960BB6813449B007B617B697A681A601C37BF
S1134970BD465DF8047B704780B485B000AFF86035
S1134980B9607A60FB681A68BB68DB431A407B68CD
S11349901A43FB681A601437BD465DF8047B704700
S11349A080B588B000AFF860B9607A60FB707B684E
S11349B0002B00D15FE0FB681B6823F44072FB68A6
S11349C01A60FA68FB781B0210464FF440711A46CD
S11349D0FFF7D2FFBB68002B03D12848FCF73EF950
S11349E0B8604FF0FF33BB61FB681B6803F0020340
S11349F0002B11D0FB78012B07D0022B08D0002B01
S1134A0000D008E01E4BBB6105E01E4BBB6102E019
S1134A101D4BBB6100BF10E0FB78012B07D0022BBC
S1134A2008D0002B00D008E0184BBB6105E0184B00
S1134A30BB6102E0174BBB6100BFFB78164AD35C35
S1134A407B617B689B00BA68D21A7B69796801FB39
S1134A5003F3B2FBF3F3013BFB61FB681B6803F058
S1134A600203002B04D0FB69002B01D10123FB615D
S1134A70FA69FB681A612037BD4680BD4081040095
S1134A8040164000C0D8A7008050740180841E00E6
S1134A9040548900002D31010498000080B582B093
S1134AA000AF786039607B68174A934203D07B6813
S1134AB0164A934200D100BF7B6800225A637B6888
S1134AC0134A1A637A683B685B78002B01D0002391
S1134AD000E00123104601211A46FFF737FF3B6827
S1134AE059683B689A683B681B7B7868FFF758FFF6
S1134AF07A683B681B78104600211A46FFF726FFA8
S1134B000837BD4680BD00BF00A0004000A400409F
S1134B10CFFF010080B582B000AF786039607B6858
S1134B2018463968FEF770F90346002B07DA0020AF
S1134B301249FEF763FB3868FEF7EAF81AE07B686F
S1134B405B69002B16D07B685A693B1D10461946D9
S1134B50002200F027F80346012B08D00120084961
S1134B60FEF74CFB7B681846FEF7FCFA02E07B6814
S1134B7000225A610837BD4680BD00BF0898000076
S1134B802898000080B582B000AF786039607B68F7
S1134B9018463968002200F075FA034618460837AB
S1134BA0BD4680BD80B584B000AFF860B9607A605E
S1134BB07B68B3F1FF3F05D07B68084AA2FB03235F
S1134BC0DB087B60F868B9687A68002300F0DAFAD9
S1134BD0034618461037BD4680BD00BF1F85EB5104
S1134BE080B584B000AFF860B9607A60F868B968DD
S1134BF07A68002300F076FB034618461037BD465A
S1134C0080BD00BF80B584B000AFF860B9607A6041
S1134C107B68B3F1FF3F05D07B68084AA2FB0323FE
S1134C20DB087B60F868B9687A68002300F024FC2C
S1134C30034618461037BD4680BD00BF1F85EB51A3
S1134C4080B582B000AF7860786800F04BFD034611
S1134C5018460837BD4680BD80B582B000AF786085
S1134C60012000F077FA02467B681A607B681B68B3
S1134C70002B01D0012300E0002318460837BD466D
S1134C8080BD00BF80B582B000AF786001200021F4
S1134C90032200F0F7F902467B681A607B681B6800
S1134CA0002B07D07B681B681846002100220023D4
S1134CB000F068FA012318460837BD4680BD00BFDE
S1134CC080B582B000AF7860396006200F497A68F9
S1134CD0FEF794FA3B68B3F1FF3F05D03B680C4AFA
S1134CE0A2FB0323DB083B607B681B68184600219A
S1134CF03A68002300F0C0FB0346012B01D10123D5
S1134D0000E0002318460837BD4680BD50980000D7
S1134D101F85EB5180B582B000AF786006200B4947
S1134D207A68FEF76BFA7B681B681846002100223C
S1134D30002300F027FA0346012B01D1012300E0F0
S1134D40002318460837BD4680BD00BF5C980000AC
S1134D5080B582B000AF7860786801F07DFD0023F3
S1134D6018460837BD4680BD80B500AF01F07AF81B
S1134D70024613469B001344DB00184680BD00BF67
S1134D8080B584B000AF0023FB604FF0FF33BB60FD
S1134D90164B7B607A68FB681344184600F0D4F81D
S1134DA038603B68002B07D17A68FB681344BB600A
S1134DB07B685B087B600FE0FA687B681344FB60E8
S1134DC0FA687B681A44BB689A4202D37B685B0822
S1134DD07B60386800F0FEF87B681F2B00D800E089
S1134DE0D8E7FB6818461037BD4680BD40420F0027
S1134DF080B500AF094B002B02D00120AFF3008037
S1134E00074B002B02D0AFF30080FEE700200549DA
S1134E10FEF7F4F96FF00103184680BD00000000AE
S1134E20000000006898000080B500AF064B002B1E
S1134E3002D0AFF30080FEE700200449FEF7DEF95C
S1134E406FF00103184680BD000000007C9800004C
S1134E5080B584B000AF0346FB71FB7903F00F0308
S1134E60013B072B2AD801A252F823F08D4E0000F3
S1134E70934E0000994E00009F4E0000A54E000086
S1134E80AB4E0000B14E0000B74E00001E23FB6085
S1134E9017E01F23FB6014E02023FB6011E02123B3
S1134EA0FB600EE02223FB600BE02323FB6008E0A1
S1134EB02423FB6005E02523FB6002E00023FB6064
S1134EC000BFFB7903F0F003202B0CD0202B02DC75
S1134ED0102B05D010E0302B08D0402B09D00BE06C
S1134EE00123BB600BE00223BB6008E00323BB602B
S1134EF005E00423BB6002E00023BB6000BF04485C
S1134F00B968FA6802F048FB1037BD4680BD00BF9F
S1134F109098000080B500AF00F094FF024613465D
S1134F209B0013449A001344184680BD80B500AF1B
S1134F3000F088FF0246034BA3FB02235B091846DB
S1134F4080BD00BFCDCCCCCC80B584B000AF786040
S1134F500023FB607B6803F00703002B04D07B680D
S1134F6023F0070308337B6000F0DAFE154B1B685F
S1134F70002B05D1144B23F007031A46114B1A607A
S1134F80124B1A687B681344114A934213D80F4B8F
S1134F901A687B681A440D4B1B689A420BD9094B5B
S1134FA01A680A4B1B681344FB60084B1A687B6839
S1134FB01344064A136000F0C1FEFB68184610371C
S1134FC0BD4680BDA8D80120EC030020A4D8012050
S1134FD0B7D4010080B483B000AF78600C37BD460D
S1134FE05DF8047B704700BF80B584B000AF786083
S1134FF039607B68FB6001F0ABFFFB681A68FB68F3
S1135000DB6BF968096C01FB03F31A44FB685A6013
S1135010FB6800229A63FB681A68FB689A60FB6865
S11350201A68FB68DB6B013BF968096C01FB03F34D
S11350301A44FB68DA60FB68FF2283F84420FB68AB
S1135040FF2283F845203B68002B09D1FB681B69CC
S1135050002B0FD0FB681033184601F08FF809E0DD
S1135060FB681033184601F0FFFDFB682433184633
S113507001F0FAFD01F08CFF012318461037BD46FC
S113508080BD00BF90B58BB002AFF860B960134625
S1135090FB71BB68002B02D10023FB6104E0FB68B9
S11350A0BA6802FB03F3FB61FB6950331846FFF750
S11350B04BFFB861BB69002B0BD0BB6950337B61DC
S11350C0FC79BB690093F868B9687A69234600F0F3
S11350D005F8BB6918462437BD4690BD80B584B039
S11350E000AFF860B9607A60FB70BB68002B03D135
S11350F0BB69BA691A6002E0BB697A681A60BB6965
S1135100FA68DA63BB69BA681A64B8690121FFF7FF
S11351106BFFBB69FA7883F84C201037BD4680BD1D
S113512080B582B000AF78607B68002B0ED07B68BE
S113513000225A607B6800221A607B680022DA60D1
S1135140786800210022002300F01CF80837BD46CF
S113515080BD00BF80B586B000AF0346FB7101235C
S11351607B6100233B61FB79786939691A46FFF753
S113517089FFF860F868FFF7D3FFFB681846183713
S1135180BD4680BD80B58AB000AFF860B9607A6072
S11351903B6000237B62FB683B62BB68002B03D14E
S11351A03B6A1B6C002B00D100BF3B68022B03D170
S11351B03B6ADB6B012B00D100BF01F027FA0346E9
S11351C0002B02D17B68002BFFD101F0C1FE3B6AAA
S11351D09A6B3B6ADB6B9A4202D33B68022B12D177
S11351E0386AB9683A6800F09DFAF8613B6A5B6A0C
S11351F0002B04D03B6A2433184600F0BFFF01F0B3
S1135200C7FE012367E07B68002B03D101F0C0FED9
S1135210002360E07B6A002B06D107F114031846D3
S113522001F002F801237B6201F0B2FE00F078FD88
S113523001F08EFE3B6A93F84430DBB25BB2B3F10B
S1135240FF3F03D13B6A002283F844203B6A93F872
S11352504530DBB25BB2B3F1FF3F03D13B6A0022BE
S113526083F8452001F094FE07F114023B1D10461B
S1135270194600F0EFFF0346002B24D1386A00F0F2
S11352804BFB0346002B18D03B6A03F110027B68EA
S11352901046194600F05CFF386A00F0D5FA00F0B9
S11352A04DFD0346002B15D10D4B4FF080521A6073
S11352B0BFF34F8FBFF36F8F0CE0386A00F0C4FA6E
S11352C000F03CFD81E7386A00F0BEFA00F036FDDC
S11352D0002300E079E718462837BD4680BD00BFAB
S11352E004ED00E080B58CB000AFF860B9607A607E
S11352F03B60FB68BB62BB68002B03D1BB6A1B6CC1
S1135300002B00D100BF3B68022B03D1BB6ADB6BCF
S1135310012B00D100BF01F095FEEFF311824FF095
S1135320BF0383F31188BFF36F8FBFF34F8FFA610D
S1135330BB61FB697B62BB6A9A6BBB6ADB6B9A429B
S113534002D33B68022B2CD1BB6A93F8453087F813
S11353502330B86AB9683A6800F0E4F997F9233061
S1135360B3F1FF3F12D1BB6A5B6A002B16D0BB6A54
S11353702433184600F002FF0346002B0ED07B684E
S1135380002B0BD07B6801221A6007E097F82330CA
S11353900133DBB2DAB2BB6A83F845200123FB6236
S11353A001E00023FB627B6A7B617B6983F31188E4
S11353B0FB6A18463037BD4680BD00BF80B58AB051
S11353C000AF786039607B683B623B6A1B68002BE6
S11353D003D13B6A5B68002B00D100BF01F032FEB1
S11353E0EFF311824FF0BF0383F31188BFF36F8F84
S11353F0BFF34F8F3A61FB603B69FB613B6A9B6B78
S1135400BB613B6ADA6BBB699A4229D93B6A93F860
S11354104530FB75BB695A1C3B6A9A6397F9173090
S1135420B3F1FF3F12D13B6A5B6A002B15D03B6A94
S11354302433184600F0A2FE0346002B0DD03B682F
S1135440002B0AD03B6801221A6006E0FB7D013381
S1135450DBB2DAB23B6A83F8452001237B6201E0C8
S113546000237B62FB69BB60BB6883F311887B6AA2
S113547018462837BD4680BD80B58AB000AFF860B5
S1135480B9607A603B6000237B62FB683B62BB6867
S1135490002B03D13B6A1B6C002B00D100BF01F031
S11354A0B5F80346002B02D17B68002BFFD101F035
S11354B04FFD3B6A9B6BFB61FB69002B30D03B6A61
S11354C0DB68BB61386AB96800F098F93B68002B67
S11354D016D1FB695A1E3B6A9A633B6A1B68002B10
S11354E004D101F04DFA02463B6A5A603B6A1B69DB
S11354F0002B11D03B6A1033184600F03FFE0BE03E
S11355003B6ABA69DA603B6A5B6A002B04D03B6A87
S11355102433184600F032FE01F03AFD01237AE00C
S11355207B68002B03D101F033FD002373E07B6A19
S1135530002B06D107F11003184600F075FE012375
S11355407B6201F025FD00F0EBFB01F001FD3B6AFD
S113555093F84430DBB25BB2B3F1FF3F03D13B6A53
S1135560002283F844203B6A93F84530DBB25BB2F7
S1135570B3F1FF3F03D13B6A002283F8452001F0D9
S113558007FD07F110023B1D1046194600F062FEAC
S11355900346002B31D1386A00F0A8F90346002BEA
S11355A025D03B6A1B68002B08D101F0D1FC3B6A73
S11355B05B68184601F048F801F0EAFC3B6A03F125
S11355C024027B681046194600F0C2FD386A00F0D8
S11355D03BF900F0B3FB0346002B1BD1104B4FF0FB
S11355E080521A60BFF34F8FBFF36F8F12E0386A97
S11355F000F02AF900F0A2FB59E7386A00F024F918
S113560000F09CFB386A00F071F90346002B01D0CE
S1135610002300E04BE718462837BD4680BD00BF95
S113562004ED00E080B58CB000AFF860B9607A603A
S1135630FB68BB62BB68002B03D1BB6A1B6C002BED
S113564000D100BF01F0FEFCEFF311824FF0BF0365
S113565083F31188BFF36F8FBFF34F8FBA617B6100
S1135660BB697B62BB6A9B6B3B623B6A002B2DD0A0
S1135670BB6A93F84430FB77B86AB96800F0BEF8A7
S11356803B6A5A1EBB6A9A6397F91F30B3F1FF3F16
S113569012D1BB6A1B69002B15D0BB6A10331846A4
S11356A000F06CFD0346002B0DD07B68002B0AD064
S11356B07B6801221A6006E0FB7F0133DBB2DAB2B9
S11356C0BB6A83F844200123FB6201E00023FB62F0
S11356D07B6A3B613B6983F31188FB6A1846303768
S11356E0BD4680BD80B584B000AF786001F030FC69
S11356F07B689B6BFB6001F04BFCFB681846103722
S1135700BD4680BD80B584B000AF78607B68FB6027
S1135710F86800F019F9F868FFF75CFC1037BD462B
S113572080BD00BF80B586B000AFF860B9607A6014
S113573000237B61FB689B6B3B61FB681B6C002B4C
S11357400DD1FB681B68002B4FD1FB685B681846C2
S113575000F0F2FF7861FB6800225A6045E07B6844
S1135760002B1AD1FB689A68FB681B6C1046B96859
S11357701A4601F0FDFEFB689A68FB681B6C1A442C
S1135780FB689A60FB689A68FB685B689A422CD352
S1135790FB681A68FB689A6027E0FB68DA68FB68B4
S11357A01B6C1046B9681A4601F0E2FEFB68DA6821
S11357B0FB681B6C5B421A44FB68DA60FB68DA68BE
S11357C0FB681B689A4207D2FB685A68FB681B6C2B
S11357D05B421A44FB68DA607B68022B05D13B69A3
S11357E0002B02D03B69013B3B613B695A1CFB68BF
S11357F09A637B6918461837BD4680BD80B582B070
S113580000AF786039607B681B6C002B19D07B6813
S1135810DA687B681B6C1A447B68DA607B68DA6838
S11358207B685B689A4203D37B681A687B68DA609A
S11358307B68DA687B681B6C386811461A4601F08D
S113584097FE0837BD4680BD80B584B000AF786050
S113585001F07EFB7B6893F84530FB7313E07B68B3
S11358605B6A002B0AD07B682433184600F086FC60
S11358700346002B03D000F031FD00E007E0FB7B82
S1135880013BDBB2FB7397F90F30002BE7DC7B683D
S1135890FF2283F8452001F07BFB01F059FB7B6874
S11358A093F84430BB7313E07B681B69002B0ED064
S11358B07B681033184600F061FC0346002B01D0CE
S11358C000F00CFDBB7B013BDBB2BB7300E003E0EB
S11358D097F90E30002BE7DC7B68FF2283F8442025
S11358E001F056FB1037BD4680BD00BF80B584B0C3
S11358F000AF786001F02CFB7B689B6B002B02D11E
S11359000123FB6001E00023FB6001F041FBFB6825
S113591018461037BD4680BD80B584B000AF7860AE
S113592001F016FB7B689A6B7B68DB6B9A4202D1B1
S11359300123FB6001E00023FB6001F029FBFB680D
S113594018461037BD4680BD80B485B000AF78607E
S11359500023FB6016E00F4AFB68DB0013445A681F
S11359607B689A420BD10B4AFB68002142F8331042
S1135970084AFB68DB00134400225A6005E0FB6818
S11359800133FB60FB68092BE5D91437BD465DF88C
S1135990047B70475CDB012080B58CB004AFF860F9
S11359A0B9603B601346FB80FB889B001846FFF7F9
S11359B0CBFA78617B69002B0ED05820FFF7C4FA2C
S11359C0F861FB69002B03D0FB697A691A6305E06F
S11359D07869FFF7FFFA01E00023FB61FB69002B04
S11359E013D0FA88BB6A0093FB6A0193FB690293A4
S11359F000230393F868B9683B6800F00FF8F8696E
S1135A0000F082F80123BB6102E04FF0FF33BB6179
S1135A10BB6918462037BD4680BD00BF80B586B03F
S1135A2000AFF860B9607A603B60BB6A1A6B7B6850
S1135A309B001046A5211A4601F0A5FDBB6A1A6B0E
S1135A407B6803F18043013B9B0013443B613B694A
S1135A5023F007033B6100237B6113E0BA687B6991
S1135A6013441978BA6A7B69134430330A461A71AD
S1135A70BA687B6913441B78002B00D105E07B696D
S1135A8001337B617B69092BE8D9BB6A002283F867
S1135A903D203B6A092B01D909233B62BB6A3A6A60
S1135AA0DA62BB6A3A6A9A64BB6A0022DA64BB6A45
S1135AB00433184601F0F8F8BB6A1833184601F0AD
S1135AC0F3F8BB6ABA6A1A613B6AC3F10A02BB6A99
S1135AD09A61BB6ABA6A5A62BB6A00221A65BB6AD7
S1135AE0002283F854203869F9683A6801F06EF9A5
S1135AF00246BB6A1A607B6A002B02D07B6ABA6AD0
S1135B001A601837BD4680BD80B582B000AF78609A
S1135B1001F01EFA264B1B680133254A1360254BFE
S1135B201B68002B09D1234A7B681360204B1B6838
S1135B30012B10D100F0F2FB0DE01F4B1B68002B72
S1135B4009D11C4B1B68DA6A7B68DB6A9A4202D86B
S1135B50184A7B681360194B1B680133174A13609A
S1135B60164B1A687B681A647B68DB6A1A46012341
S1135B7003FA02F2124B1B681343114A13607B6849
S1135B80DA6A13469B0013449B000E4A1A447B684E
S1135B9004331046194601F093F801F0F9F9064B65
S1135BA01B68002B01D0034B1B680837BD4680BD22
S1135BB0E8D90120ACD80120F4D9012004DA01206D
S1135BC0F0D90120B0D8012080B584B000AF78604E
S1135BD00023FB607B68002B0AD00C4B1B6800F091
S1135BE09FF87868002100F0DFFE00F0A7F8F86065
S1135BF0FB68002B07D1064B4FF080521A60BFF3AD
S1135C004F8FBFF36F8F1037BD4680BD10DA012070
S1135C1004ED00E080B586B000AF78607B683B613E
S1135C201D4B1B683A699A4202D10023FB752DE093
S1135C3001F08EF93B695B69FB6001F0A9F9174B30
S1135C401B68FA689A4204D0154B1B68FA689A429A
S1135C5002D10223FB7519E0FB68124A934209D171
S1135C603B699B6A002B02D10323FB750EE00223E0
S1135C70FB750BE0FB680C4A934202D0FB68002BD7
S1135C8002D10423FB7501E00123FB75FB7D18465B
S1135C901837BD4680BD00BFACD80120A0D9012073
S1135CA0A4D90120D4D90120BCD9012080B584B065
S1135CB002AF00230093134B0193134813498C2222
S1135CC00023FFF769FE78607B68012B17D14FF042
S1135CD0BF0383F31188BFF36F8FBFF34F8F3B6014
